:020000040000FA
:10000000E806002011180000B9020000BB02000041
:10001000BF020000C3020000C70200000000000091
:10002000000000000000000000000000CB02000003
:10003000CD02000000000000CF020000D10200004D
:100040002B1800002B1800002B1800002B180000A4
:100050002B1800002B1800002B1800002B18000094
:100060002B1800002B1800002B1800002B18000084
:100070002B1800002B1800002B1800002B18000074
:100080002B1800002B1800002B1800002B18000064
:100090002B1800002B1800002B1800002B18000054
:1000A0002B1800002B1800002B1800002B18000044
:1000B0002B180000C90C0000F90800002B180000E4
:1000C0002B1800002B1800002B1800002B18000024
:1000D0002B180000531600002B1800002B180000EE
:1000E0002B1800002B1800002B1800002B18000004
:1000F000051400002B1800002B1800002B1800001E
:100100002B1800002B180000230E00002B180000F5
:100110002B1800002B1800002B1800002B180000D3
:100120002B1800002B1800002B1800002B180000C3
:1001300000F002F800F03FF80AA090E8000C8244BA
:100140008344AAF10107DA4501D100F034F8AFF297
:10015000090EBAE80F0013F0010F18BFFB1A43F0A5
:10016000010318473837000058370000103A24BF01
:1001700078C878C1FAD8520724BF30C830C144BF0C
:1001800004680C607047000000230024002500264E
:10019000103A28BF78C1FBD8520728BF30C148BFEA
:1001A0000B607047642903F09380002070471FB5EF
:1001B0001FBD10B510BD03F085F91146FFF7F7FF1D
:1001C00000F008F803F0A3F903B4FFF7F2FF03BC53
:1001D00001F0E4F901F078F94FF4A06002F0BCF806
:1001E0004FF4165001F0E9F900F094F900F097FA95
:1001F00000F070FE472148F29E6000F011FD47219B
:1002000048F29E6000F0B9FD41F61F4141F63F7093
:1002100000F045FB41F61F41C72000F09FF900F0B8
:1002200084FA96211D4802F0D3FF00214FF0804050
:1002300002F0CAFF00214FF0804002F0C7FF00210A
:100240004FF0804002F0C4FF26E000F0C5FE00F051
:100250005FFE1349134801F039FA1E2001F071F9CD
:10026000114800680A280DD21048006850B910489B
:100270000068642803D204200E49086002E00320CD
:100280000C4908600A4800680A2805D20748006837
:1002900010B9022007490860D7E70000002C014090
:1002A00064000020680000203C0000202C0000209A
:1002B0004000002000000020704700BFFEE700BFA4
:1002C000FEE700BFFEE700BFFEE7704770477047DC
:1002D000704700000CB50020019000906C48006849
:1002E00040F480306A49086000BF6948006800F443
:1002F000003000900198401C0190009818B90198B6
:10030000B0F5A06FF1D16248006800F4003010B180
:100310000120009001E0002000900098012843D1C6
:100320005C48006840F010005A49086008460068C0
:1003300020F0030008600846006840F002000860F2
:10034000534840685249486008464068486008463B
:10035000406840F4806048600846406820F47C10A3
:1003600048600846406840F4E81048600846006865
:1003700040F08070086000BF4548006800F00070E1
:100380000028F9D04248406820F003004049486006
:100390000846406840F00200486000BF3C484068A2
:1003A00000F00C000828F9D10CBD10B5FFF792FF42
:1003B00010BD10B53648006840F0010034490860AF
:1003C000084640683449084031494860084600689A
:1003D000324908402E4908600846006820F4802011
:1003E00008600846406820F4FE0048604FF41F0093
:1003F0008860FFF7DAFF4FF000602949086010BD00
:1004000010B5002100200022214B5B6803F00C0195
:1004100021B1042906D0082928D107E0214B224C1C
:10042000236027E01F4B204C236023E0184B5B68C0
:1004300003F47010164B5B6803F48032022303EB65
:10044000904022B9194B4343174C23600DE0104BE9
:100450005B6803F4003323B1144B4343124C236015
:1004600003E0104B4343104C236003E00D4B0E4C54
:10047000236000BF00BF064B5B68C3F303130C4C43
:10048000E15C094B1B68CB40074C236010BD0000AA
:1004900000100240002002400000FFF8FFFFF6FEBF
:1004A00008ED00E000127A000C00002000093D0079
:1004B0001000002008B50121042001F0E5FC012115
:1004C000114801F0F6FA4FF40040ADF80000482062
:1004D0008DF8030069460D4801F01AFA08BD08B509
:1004E0000121082001F0D0FC4FF48060ADF800003D
:1004F00003208DF8020010208DF80300694604489F
:1005000001F006FA08BD00000002300000080140BA
:10051000000C014008B50121242001F0B5FC4FF486
:100520008070ADF8000010208DF8030003208DF8D6
:1005300002006946074801F0EBF90420ADF800001D
:100540006946054801F0E4F90421034801F08DFAF9
:1005500008BD0000000801400014014030B589B01A
:1005600005460C460121C80201F08EFC0121084617
:1005700001F097FC0121042001F086FC01210820F4
:1005800001F082FC40F60E00ADF8200018208DF836
:10059000230003208DF8220008A9FA4801F0B8F9D9
:1005A000ADF81850ADF814400020ADF81A00ADF8C1
:1005B000160005A9F44802F011F8ADF81850ADF88E
:1005C00014400020ADF81A00ADF8160005A94FF050
:1005D000804002F003F87020ADF804000120ADF86F
:1005E00006000020ADF80A00ADF80C0001A9E648AD
:1005F00002F00BF97020ADF804000120ADF8060000
:100600000020ADF80A00ADF80C0001A94FF08040C1
:1006100002F063F87020ADF804000120ADF8060088
:100620000020ADF80A00ADF80C0001A94FF08040A1
:1006300002F0A0F87020ADF804000120ADF806002B
:100640000020ADF80A00ADF80C0001A94FF0804081
:1006500002F0DBF80121CC4802F028FB0821CA484F
:1006600002F048FC0821C84802F063FC0121C6489A
:1006700002F010FC0121C44802F00CFB01218807A4
:1006800002F008FB09B030BD08B50121142001F0CB
:10069000FBFB3F20ADF8000010208DF80300032085
:1006A0008DF802006946B94801F032F93020ADF802
:1006B000000010208DF8030003208DF80200694629
:1006C000B04801F025F90020B1490860B149C1F8EE
:1006D0008401AF4908310860091D0860AE4908600F
:1006E000091D0860AA4910310860AA49C1F894019F
:1006F00008BD0020A6490860A649C1F88401A449A4
:1007000008310860091D0860A3490860091D0860D8
:100710009F49103108609F49C1F89401704710B596
:10072000FFF7B2FFFFF7E5FF10BD01209849086011
:1007300000209849C1F884010120954908310860DA
:100740000020091D08600120934908600020091D50
:10075000086001208E491031086000208D49C1F8E1
:100760009401704700208A49086001208949C1F836
:10077000840100208649083108600120091D0860B5
:100780000020854908600120091D0860002080497B
:100790001031086001207F49C1F8940170470020A2
:1007A0007B49086001207B49C1F884017849083100
:1007B00008600020091D08600120774908600020BA
:1007C000091D086072491031086001207149C1F8A3
:1007D0009401704701206E49086000206D49C1F8FE
:1007E00084016B49083108600120091D0860002060
:1007F000694908600120091D0860654910310860D9
:1008000000206449C1F894017047002060490860E5
:1008100001206049C1F884015D4908310860002069
:10082000091D08605C4908600120091D08605849DD
:100830001031086000205749C1F894017047012029
:100840005349086000205349C1F8840150490831D8
:1008500008600120091D08604F4908600020091D3B
:1008600008604B491031086001204A49C1F89401E1
:10087000704710B5642049490880084601884FF048
:10088000804002F0A5FC10BD10B5962043490880B9
:10089000084601884FF0804002F09AFC10BD7FB5F9
:1008A00005460C460121042001F0FBFAADF8085082
:1008B000ADF804400020ADF80A00ADF8060001A92B
:1008C000374801F08BFE01221146354802F0FDF950
:1008D0001E208DF8000000208DF8010003208DF807
:1008E000020001208DF80300684601F03AFD012165
:1008F0002B4802F0CFF97FBD10B50121284802F046
:1009000092FC002879D027480068012827D1264882
:10091000006808B9012000E000202349086023484E
:100920000068401C2149086008460068032802DA74
:10093000FFF718FF13E01D480068072804DAFFF7E7
:1009400098FFFFF77CFF0AE0FFF79EFFFFF7EDFE41
:1009500000201449086016490860144908601148CD
:100960000068022831D111480068401C0F49086016
:100970000846006803281DDAFFF77BFFFFF70FFF2B
:1009800023E0000000080140002C0140001001405D
:1009900080012242000022429001214222000020D8
:1009A0000008004000000020888122422C00002026
:1009B00024000020FFF768FFFFF7B7FE00208F49F3
:1009C00008608F4908608F4908608C4800680328D8
:1009D00028D18D48006808B9012000E000208A492C
:1009E000086088480068401C86490860084600681E
:1009F000032803DAFFF7B6FE14E0FDE08148006843
:100A0000072804DAFFF735FFFFF7FFFE0AE0FFF7DC
:100A10003BFFFFF78AFE00207849086078490860AC
:100A20007849086075480068042876D1FFF761FEB0
:100A300074480068401C734908607348006808B92E
:100A4000012000E00020704908606E48006803281B
:100A500005DAC3214FF0804002F0B8FB85E0694819
:100A60000068022801DD012000E00020062804DAE9
:100A7000B021664802F0ACFB77E0624800680528C8
:100A800001DD012000E0002009280DDAC3214FF02C
:100A9000804002F099FB5C48006808B9012000E042
:100AA00000205949086060E056480068082801DDC8
:100AB000012000E000200C2804DAB921880702F0A8
:100AC00083FB52E04F4800680B2801DD012000E065
:100AD00000200F2804DAB921880702F077FB44E0F0
:100AE000484800680E2801DD012000E0002012289F
:100AF00004DAC321454802F06BFB36E04148006848
:100B0000112801DD012000E00020152806DAC321AC
:100B10004FF0804002F058FB27E02BE03948006896
:100B2000142801DD012000E00020182804DAB92192
:100B3000880702F049FB18E032480068172801DDF9
:100B4000012000E000201B2804DAB9212F4802F020
:100B50003FFB0AE02B4800681A2801DD012000E075
:100B600000201C2801DAFFF7E0FD0020234908607F
:100B70002449086021480068042839D124480078B5
:100B8000052831D2DFE800F00306091A2D0000F035
:100B900005FB2CE000F010FB29E01E480068401C1B
:100BA0001C49086008460068B0F5FA6F02DA00F0E8
:100BB00096FB02E001201849087018E0154800680B
:100BC000401E1449086008460068B0F52F7F02DD1A
:100BD00000F0F2FA04E000200E4908600E490870A7
:100BE00005E000F07CFB02E000F0D8FA00BF00BF97
:100BF00001210A4802F028FB10BD0000000000207F
:100C0000240000202C00002088812242002C01407A
:100C10004400002030000020450000200008004073
:100C200030B589B005460C460121022001F039F9A2
:100C30000121042001F028F928208DF81700402018
:100C4000ADF8140003208DF8160005A9EC4800F05B
:100C50005FFE4021EA4800F00AFFADF80C50ADF805
:100C600008400020ADF80E00ADF80A0002A9E548E2
:100C700001F0B4FC0020ADF81800ADF82000ADF88C
:100C80001A00ADF81E000120ADF81C0006A9DD48D1
:100C900001F037FF1D208DF8040001208DF80500BC
:100CA00003208DF8060001208DF8070001A801F04F
:100CB00058FB01220321D34802F007F80121D14853
:100CC00001F0E8FF09B030BD10B5CF48007800F062
:100CD000800000284CD10121CA4802F0A4FAD0B10A
:100CE000C948007800F04000A8B1C748007800F07B
:100CF0003F003F280AD1C448007840F08000C24934
:100D000008704FF6FF70C149088004E0BE480078C3
:100D1000401CBD4908700221BA4802F084FA38B379
:100D2000B948007800F0400078B1B748007840F04A
:100D30008000B5490870B34802F056FAB3490880FC
:100D40000021B04802F058F912E00020AE490870C6
:100D5000AE4908800021AB4802F030FAAA4800787A
:100D600040F04000A84908700221A64802F044F96A
:100D70000321A44802F068FA10BD30B589B00546D9
:100D80000C460121082001F08CF80121042001F01B
:100D90007BF828208DF817000120ADF814000320FF
:100DA0008DF8160005A9964800F0B2FD012194487F
:100DB00000F05DFEADF80C50ADF808400020ADF835
:100DC0000E00ADF80A0002A9914801F007FC0020CE
:100DD000ADF81800ADF82000ADF81A00ADF81E000F
:100DE0000120ADF81C0006A9894801F08AFE3220D6
:100DF0008DF8040001208DF8050002208DF8060012
:100E000001208DF8070001A801F0ABFA01220321AF
:100E10007F4801F05AFF01217D4801F03BFF09B0F6
:100E200030BD10B57B48007800F0800000284CD120
:100E30000121774802F0F7F9D0B17648007800F048
:100E40004000A8B17348007800F03F003F280AD165
:100E50007048007840F080006E4908704FF6FF70CF
:100E60006D49088004E06B480078401C69490870AF
:100E70000221674802F0D7F938B36648007800F0DD
:100E8000400078B16348007840F080006149087004
:100E90005F4802F0A9F96049088000215C4802F02F
:100EA000ABF812E000205B4908705B490880002124
:100EB000574802F083F95748007840F04000554900
:100EC00008700221524802F097F80321504802F0BE
:100ED000BBF910BD08B50121042000F0D5FF4FF487
:100EE000C050ADF8000010208DF8030003208DF8ED
:100EF00002006946494800F00BFD4FF40061474885
:100F000000F0B5FD4FF48051444800F0B0FD08BD3D
:100F10002DE9F0413C48007800F08000002829D0FD
:100F20003948007800F03F003D49086008460088D5
:100F300000040860084600683449098808443849B4
:100F400008600846006802F045FC804602F016FC86
:100F50000646344A344B02F013FB044602F0E2FA30
:100F60002F4908600846016830A002F071F900209E
:100F7000254908702748007800F08000002829D013
:100F80002448007800F03F002E4908600846008899
:100F900000040860084600681F4909880844294978
:100FA00008600846006802F015FC804602F0E6FB87
:100FB00006461C4A1C4B02F0E3FA044602F0B2FA61
:100FC00020490860084601681FA002F041F900208E
:100FD00010490870BDE8F08110B501202049086073
:100FE0002049C1F8B0010A2000F087FA00201C490E
:100FF00008601C49C1F8B001192000F07EFA10BD4C
:1010000000080140000400403400002036000020A9
:10101000000C0040380000203A0000200010014081
:101020003C0000209CC420B07268913F46726F6EF5
:10103000745F4D6561737572653A256420636D0D4B
:101040000A000000400000204C6566745F4D656139
:10105000737572653A256420636D0D0A0000000007
:10106000AC0122420000224230B585B005460C4654
:101070004FF47040ADF8000003208DF802001020FE
:101080008DF803006946F94800F042FC012148034D
:1010900000F0FAFE0121102000F0F6FEADF8085035
:1010A000ADF804400020ADF80A00ADF8060001A933
:1010B000EF4801F093FA01221146ED4801F005FED8
:1010C0002C208DF8100000208DF8110003208DF8E1
:1010D000120001208DF8130004A801F042F901214B
:1010E000E34801F0E3FD0121E14801F0D3FE0121D5
:1010F000DF4801F0CFFD05B030BD10B50020DD495F
:101100000860DD490870DD490870FFF7D3F9FFF783
:10111000E6F900F0D9F947216320FFF7A5FF282061
:1011200000F00FFA0120D449087000BFD14864389C
:1011300000680028FAD1D0490870282000F001FA90
:101140000220CD49087000BFCC4800780028FBD0B1
:101150000120CB4908600020C7490870282000F012
:10116000F0F90320C449087000BFC4480078002883
:10117000FBD1C1490870282000F0E3F90020C049E4
:101180000860C048D0F8A00108B9012000E00020A4
:10119000B8490860142000F0D4F910BD0020B84907
:1011A00008310860B849C1F8B401B5491031086088
:1011B000B549C1F8BC017047B4480078082813D27B
:1011C000DFE800F070615242322213040120AC4982
:1011D000083108600020AC49C1F8B401A8491031B9
:1011E0000860A949C1F8BC016CE00120A44908319C
:1011F0000860A549C1F8B4010020A1491031086078
:10120000A149C1F8BC015DE000209D49083108609A
:1012100001209D49C1F8B4010020994910310860AE
:101220009949C1F8BC014DE000209549083108609A
:1012300001209549C1F8B40191491031086000209E
:101240009149C1F8BC013DE000208D49083108609A
:101250008D49C1F8B401012089491031086000208E
:101260008949C1F8BC012DE000208549083108609A
:101270008549C1F8B40101208149103108608249D3
:10128000C1F8BC011EE000207D49083108607E499C
:10129000C1F8B4017A491031086001207A49C1F8D7
:1012A000BC010FE001207649083108600020764932
:1012B000C1F8B40172491031086001207249C1F8C7
:1012C000BC0100BF00BF71480078401C6F49087026
:1012D00008460078082801D10020087070476C4843
:1012E0000078082813D2DFE800F0041322324252BB
:1012F0006170012062490831086000206249C1F82C
:10130000B4015F49103108605F49C1F8BC016CE06D
:1013100001205B49083108605B49C1F8B401002035
:101320005749103108605849C1F8BC015DE0002000
:1013300053490831086001205349C1F8B401002025
:101340004F49103108605049C1F8BC014DE0002000
:101350004B490831086001204B49C1F8B4014849A4
:101360001031086000204849C1F8BC013DE0002070
:101370004349083108604449C1F8B401012040499B
:101380001031086000204049C1F8BC012DE0002068
:101390003B49083108603C49C1F8B4010120384993
:1013A000103108603849C1F8BC011EE00020344902
:1013B000083108603449C1F8B4013149103108607E
:1013C00001203149C1F8BC010FE001202C4908314E
:1013D000086000202C49C1F8B40129491031086087
:1013E00001202949C1F8BC0100BF00BF284800788E
:1013F000401C2749087008460078082801D10020C1
:101400000870704710B50121194801F00CFF002841
:1014100053D019480078052847D2DFE800F00306CA
:10142000091A4300FFF7BAFE42E0FFF7C5FE3FE0AE
:1014300018480068401C1749086008460068B0F565
:10144000FA6F02DAFFF74BFF02E001200B49087048
:101450002EE010480068401E0E49086008460068EB
:10146000B0F52F7F18DDFFF7A7FE1AE0000C014052
:1014700000340140A001214244000020450000202A
:10148000A881214200002142008021424600002024
:101490004700002048000020002008490860084953
:1014A000087005E0FFF71BFF02E0FFF777FE00BFC3
:1014B00000BF0121034801F0C7FE10BD4800002015
:1014C000450000200034014010B56FF0040000F02A
:1014D00092FF2E4800682E49B0FBF1F02D490870AC
:1014E0000846007800EB4001C1EBC0104FF6FF71D9
:1014F00001EAC0002849088010BD0146254A12783B
:101500004A434FF0E0235A6100229A611A46126959
:1015100042F001021A6100BF4FF0E022106900F0B2
:1015200001021AB100F48032002AF5D04FF0E02217
:10153000126922F001024FF0E0231A6100229A6141
:1015400070470146144A12884A434FF0E0235A611B
:1015500000229A611A46126942F001021A6100BF24
:101560004FF0E022106900F001021AB100F480325D
:10157000002AF5D04FF0E022126922F001024FF06C
:10158000E0231A6100229A61704700000C000020DD
:1015900000127A004C0000204E000020014600BFDF
:1015A000704700BF944A128802F04002002AF9D026
:1015B000C2B2914B1B1D1A80704710B586B004460D
:1015C000012144F2040000F05FFC4FF40070ADF81C
:1015D000140003208DF8160018208DF8170005A9B7
:1015E000864800F095F94FF48060ADF814000420AF
:1015F0008DF8170005A9814800F08AF925208DF89B
:10160000000003208DF801008DF8020001208DF804
:101610000300684600F0A5FE01940020ADF8080024
:10162000ADF80A00ADF80C00ADF810000C20ADF8D4
:101630000E0001A9704800F0CEFC012240F22551B5
:101640006D4800F060FD01216B4800F050FD06B0D0
:1016500010BD10B540F22551674800F039FE10B3B7
:10166000654800F0B5FDC4B26548008800F400404C
:10167000C8B96348008800F4804060B10A2C03D0E8
:1016800000205F49088020E05D48008840F4004069
:101690005B49088019E00D2C06D15948008840F4B8
:1016A00080405749088010E055480088C0F30D007D
:1016B00054490C5452480088401C5149088008463F
:1016C0000088072801DD0020088010BD30B585B0F6
:1016D00004460D4614224C49684601F035FE49483F
:1016E0000078401EC0B28DF8000046484078401E89
:1016F000C0B28DF80100434880788DF8020041485F
:10170000C0788DF803003F480079401EC0B28DF8C4
:1017100004003C484079401EC0B28DF805003948AD
:1017200080798DF806003748C0798DF80700492088
:101730008DF808009DF801003038642148439DF879
:101740000210303901EB810100EB41019DF80300EB
:101750003038084420609DF8050030386421484343
:101760009DF80610303901EB810100EB41019DF835
:1017700007003038084428602078642190FBF1F09D
:101780003030C0B28DF8090020780A2190FBF1F0CA
:1017900090FBF1F201FB12003030C0B28DF80A006C
:1017A000207890FBF1F201FB12003030C0B28DF8CE
:1017B0000B002878642190FBF1F03030C0B28DF836
:1017C0000C0028780A2190FBF1F090FBF1F201FB6C
:1017D00012003030C0B28DF80D00287890FBF1F285
:1017E00001FB12003030C0B28DF80E0007A001F0EE
:1017F0002FFD05B030BD0000003801400008014059
:101800006C00002054000020883800000A0000000E
:101810000948804709480047FEE7FEE7FEE7FEE784
:10182000FEE7FEE7FEE7FEE7FEE7FEE704480549C0
:10183000054A064B70470000B30300003101000069
:10184000E8000020E8060020E8020020E80200206E
:1018500010B50446CC48844208D10121042000F090
:101860002DFB0021042000F029FB46E0C7488442FC
:1018700008D10121082000F021FB0021082000F000
:101880001DFB3AE0C248844208D10121102000F03B
:1018900015FB0021102000F011FB2EE0BD48844212
:1018A00008D10121202000F009FB0021202000F0B8
:1018B00005FB22E0B848844208D10121402000F015
:1018C000FDFA0021402000F0F9FA16E0B348844206
:1018D00008D10121802000F0F1FA0021802000F0E1
:1018E000EDFA0AE0AE48844207D10121801500F0EC
:1018F000E5FA0021A01500F0E1FA10BD10B50121B4
:10190000084600F0DBFA0021012000F0D7FA10BDF4
:101910002DE9F04102460025002600200023002486
:10192000002791F803C00CF00F0591F803C00CF0EC
:10193000100CBCF1000F03D091F802C04CEA050571
:1019400091F800C0BCF1000F31D0146800202BE0EA
:101950004FF0010C0CFA00F3B1F800C00CEA0306DA
:101960009E4220D183004FF00F0C0CFA03F7BC43CA
:1019700005FA03FC4CEA040491F803C0BCF1280FFB
:1019800006D14FF0010C0CFA00FCC2F814C00AE0BA
:1019900091F803C0BCF1480F05D14FF0010C0CFACF
:1019A00000FCC2F810C0401C0828D1D31460B1F864
:1019B00000C0BCF1FF0F34DD546800202EE000F1C0
:1019C000080C4FF0010808FA0CF3B1F800C00CEA5B
:1019D00003069E4221D183004FF00F0C0CFA03F74F
:1019E000BC4305FA03FC4CEA040491F803C0BCF1C3
:1019F000280F05D100F1080C08FA0CF8C2F8148081
:101A000091F803C0BCF1480F07D100F1080C4FF06A
:101A1000010808FA0CF8C2F81080401C0828CED340
:101A20005460BDE8F0814FF6FF71018002218170A2
:101A30000421C17070470246002093680B400BB12F
:101A4000012000E0002070470146886880B270479E
:101A500002460020D3680B400BB1012000E00020BB
:101A600070470146C86880B27047016170474161A4
:101A700070470AB1016100E041617047C160704781
:101A80004FF480320A438261816182618269826996
:101A9000704702460020434B18684FF68073184089
:101AA00040EA021008433F4B186070473E49C86146
:101AB0007047F0B50A46002300240021002500F0FD
:101AC0000046B6F1004F02D1364EF16901E0354EC5
:101AD0007168C0F3034583B200F44016B6F5401FA9
:101AE00008D121F070612F4E766826F070662D4F78
:101AF0007E6012E000F48016B6F5801F06D1032642
:101B000006FA05F4A14341F0706106E0460D360186
:101B100003FA06F6B14341F0706122B1460D360179
:101B200003FA06F6314300F00046B6F1004F02D149
:101B30001C4EF16101E01B4E7160F0BD30B500221A
:101B40008B071C0F0F2303FA04F2164B08338C107B
:101B500053F824309343134C08348D1044F8253047
:101B600023468C1053F824308C07240F00FA04F419
:101B700023430C4C08348D1044F8253030BD0A49FD
:101B8000DC3108607047000000080140000C014093
:101B9000001001400014014000180140001C0140E9
:101BA000002001400000014000002042DF480068A2
:101BB00040F00100DD49086008464068DC49084003
:101BC000DA49486008460068DA490840D7490860A1
:101BD0000846006820F4802008600846406820F429
:101BE000FE0048604FF41F0088607047CF490968C5
:101BF00021F48031CD4A11601146096821F4802119
:101C00001160B0F5803F03D0B0F5802F0ED106E013
:101C1000C649096841F48031C44A116007E0C349EC
:101C2000096841F4A021C14A116000E000BF00BF73
:101C3000704710B501460022002300204A11012AF6
:101C400002D1BA4C236806E0022A02D1B74C236ABB
:101C500001E0B64C636A01F01F02012494401C406D
:101C60000CB1012000E0002010BD38B5002000902C
:101C70000024002500BF3120FFF7DBFF0546009858
:101C8000401C00900098B0F5A06F01D0002DF2D05C
:101C90003120FFF7CEFF08B1012400E000242046E8
:101CA00038BD01460020A14A106820F0F80040EA43
:101CB000C10010607047A0490860704702460020CC
:101CC0009A4B586820F47C1042EA01031843974B62
:101CD0005860704798490866704701460020934A4B
:101CE000506820F003000843506070478F484068F8
:101CF00000F00C007047014600208C4A506820F02C
:101D0000F00008435060704701460020874A506841
:101D100020F4E06008435060704701460020834A89
:101D2000506820F4605040EAC1005060704729B10B
:101D30007E4A527A02437D4B5A7204E07B4A527AC1
:101D400082437A4B5A7270477B49D831086070479A
:101D500001460020754A506820F440400843506016
:101D600070470021714A20321170704A82F82010A9
:101D7000012802D004280AD104E001216B4A203254
:101D8000117005E00521694A2032117000E000BFA2
:101D900000BF70476949086070476449096A014398
:101DA000624A11627047654944390860704730B52E
:101DB00000210022002400235C4D6D6805F00C0119
:101DC00021B1042905D0082923D105E05C4D056027
:101DD00022E05B4D05601FE0544D6D6805F4701204
:101DE000524D6D6805F48034022505EB92421CB912
:101DF000544D554305600BE04C4D6D6805F40035BE
:101E00001DB1504D5543056002E04D4D55430560F1
:101E100002E04B4D056000BF00BF444D6D6805F00A
:101E2000F0010909484D6B5C0568DD4045603F4D98
:101E30006D6805F4E061090A434D6B5C4568DD405F
:101E400085603A4D6D6805F46051C90A3E4D6B5C82
:101E50004568DD40C560354D6D6805F44041890B2E
:101E60003A4D6B5CC568B5FBF3F5056130BD29B132
:101E70002E4A526902432D4B5A6104E02B4A5269A3
:101E800082432A4B5A61704729B1284A926902431A
:101E9000264B9A6104E0254A92698243234B9A615A
:101EA000704729B1214AD2690243204BDA6104E02C
:101EB0001E4AD26982431D4BDA61704729B11B4A21
:101EC000D2680243194BDA6004E0184AD2688243B0
:101ED000164BDA60704729B1144A12690243134B5A
:101EE0001A6104E0114A12698243104B1A6170476B
:101EF00012494039086070470F49C86470470B4960
:101F0000C87170470948406A40F0807007494862CC
:101F1000704701460020054A92680A400AB1012034
:101F200000E00020704701498872704700100240AD
:101F30000000FFF8FFFFF6FE00004242800442422C
:101F400000127A0000093D006E0000207E00002093
:101F500010B50446FB48844209D101218803FFF7EC
:101F6000ADFF00214FF48040FFF7A8FF32E0F648B4
:101F7000844209D101214804FFF7ADFF00214FF44D
:101F80000030FFF7A8FF25E0F048844209D1012185
:101F90008804FFF7A0FF00214FF48020FFF79BFF8C
:101FA00018E0EB48844209D10121C804FFF793FFF0
:101FB00000214FF40020FFF78EFF0BE0E54884423C
:101FC00008D101210805FFF786FF00214FF480109A
:101FD000FFF781FF10BD2DE9F04786B005460E469C
:101FE0000024A24600BFA1460027B08900B100BF6F
:101FF0002F462C8A4CF6FF700440F08804432C8254
:10200000AC894EF6F3100440B088318908437189D9
:1020100008430443AC81AC8A4FF6FF400440B089CA
:102020000443AC8201A8FFF7C2FEC648874202D132
:10203000DDF810A001E0DDF80CA0A88900F4004054
:1020400040B10AEBCA0000EB0A1031684900B0FB4E
:10205000F1F807E00AEBCA0000EB0A1031688900CA
:10206000B0FBF1F86420B8FBF0F004012009642112
:1020700001FB1089A88900F4004040B1322000EB38
:10208000C900B0FBF1F000F00700044308E0322083
:1020900000EB09106421B0FBF1F000F00F000443E5
:1020A0002C8106B0BDE8F0874FF416510160002185
:1020B0008180C18001810C21418100218181704793
:1020C00010B502460020108A4FF2FF0318400B881B
:1020D0004C8823438C882343CC88234318431082A5
:1020E00010BD0021018041808180C180704721B1F5
:1020F000828942F40052828104E082894DF6FF73A6
:102100001A4082817047F0B503460024002600255E
:10211000002040F66A17B94200D100BF1846C1F34B
:10212000421401F01F06012707FA06F5012C01D120
:102130000C3004E0022C01D1103000E014301AB150
:1021400007682F43076002E00768AF430760F0BDF0
:102150001AB1838A0B43838202E0838A8B43838292
:102160007047028A4FF6F0731A400282028A0A43CD
:102170000282704782894FF2FF731A4082818289FE
:102180000A438281704721B1828942F00202828132
:1021900004E082894FF6FD731A4082817047028AFB
:1021A0004FF6DF731A400282028A0A4302827047A6
:1021B00021B1028A42F48042028204E0028A4BF694
:1021C000FF731A4002827047C1F308028280704791
:1021D00001468888C0F308007047818941F00101F9
:1021E00081817047028BD2B20283028B42EA0122C4
:1021F00002837047028B02F47F420283028B0A4300
:102200000283704721B1828A42F02002828204E078
:10221000828A4FF6DF731A408282704721B1828A28
:1022200042F01002828204E0828A4FF6EF731A4075
:102230008282704721B1828A42F00802828204E0E1
:10224000828A4FF6F7731A408282704721B18289E1
:1022500042F40042828103E08289C2F30E0282814D
:10226000704721B1828A42F40062828204E0828A4D
:102270004FF2FF731A4082827047828A4FF6FB73D7
:102280001A408282828A0A438282704721B1828AFE
:1022900042F00202828204E0828A4FF6FD731A4005
:1022A0008282704702460020B1F5007F00D100BF56
:1022B00013880B400BB1012000E00020704701F4AF
:1022C0000072B2F5007F00D100BFCA4302807047A0
:1022D00070B50246002400230025002040F66A164F
:1022E000B14200D100BFC1F3421501F01F03012626
:1022F00006FA03F3012D02D19689334006E0022D40
:1023000002D1168A334001E0968A33400C1201262E
:1023100006FA04F41688344013B10CB1012000E031
:10232000002070BD10B50022002340F66A14A142BF
:1023300000D100BF0A1201249440A3B2DC43048000
:1023400010BD00000038014000440040004800403B
:10235000004C00400050004031490143314A1160B7
:10236000704770B5002100230F22C47804B32D4CB0
:10237000246804F4E064C4F5E064210AC1F10403B4
:10238000CA40447804FA03F18478144021430901D7
:10239000254C0678A155047804F01F050124AC40B3
:1023A00005786D11AD0005F1E025C5F8004109E0A3
:1023B000047804F01F050124AC401C4D067876110A
:1023C00045F8264070BD1A4A0A400243154B1B1FB0
:1023D0001A60704739B1134A121D12680243114B3B
:1023E0001B1D1A6006E00F4A121D126882430D4B36
:1023F0001B1D1A607047042808D14FF0E0210969BD
:1024000041F004014FF0E022116107E04FF0E021BC
:10241000096921F004014FF0E022116170470000CA
:102420000000FA050CED00E000E400E080E100E0CF
:1024300080FFFF1F10B50446FE48844208D10121E9
:10244000C014FFF73BFD0021E014FFF737FDC4E0A7
:10245000B4F1804F08D101210846FFF73CFD00216F
:102460000120FFF738FDB8E0F348844208D101218C
:102470000220FFF730FD00210220FFF72CFDACE029
:10248000EE48844208D101210420FFF724FD0021F9
:102490000420FFF720FDA0E0E948844208D1012193
:1024A0000820FFF718FD00210820FFF714FD94E035
:1024B000E448844208D101211020FFF70CFD0021DF
:1024C0001020FFF708FD88E0DF48844208D1012191
:1024D0002020FFF700FD00212020FFF7FCFC7CE01E
:1024E000DA48844208D101214014FFF7E7FC0021BB
:1024F0006014FFF7E3FC70E0D548844209D1012164
:10250000C804FFF7DBFC00214FF40020FFF7D6FCE6
:1025100063E0D048844209D101210805FFF7CEFCD1
:1025200000214FF48010FFF7C9FC56E0CA488442EE
:1025300009D101214805FFF7C1FC00214FF400102B
:10254000FFF7BCFC49E0C548844208D10121402086
:10255000FFF7C1FC00214020FFF7BDFC3DE0C04873
:10256000844208D101218020FFF7B5FC00218020A2
:10257000FFF7B1FC31E0BB48844208D1012180154E
:10258000FFF7A9FC0021A015FFF7A5FC25E0B64840
:10259000844209D101210804FFF790FC00214FF487
:1025A0008030FFF78BFC18E0B048844209D101214C
:1025B0004804FFF783FC00214FF40030FFF77EFC56
:1025C0000BE0AB48844208D101218804FFF776FC78
:1025D00000214FF48020FFF771FC10BD002202881B
:1025E000944B98420ED0994B98420BD0B0F1804F4B
:1025F00008D0914B984205D0904B984202D0904B16
:10260000984204D14FF68F731A404B881A438D4B72
:10261000984207D08C4B984204D04FF6FF431A40A3
:10262000CB881A4302808B8883850B880385814B76
:1026300098420BD0854B984208D08B4B984205D0DE
:102640008A4B984202D08A4B984201D10B7A03867A
:1026500001238382704770B5002400220023058C7B
:102660004FF6FE7635400584028C8388048B4FF646
:102670008F752C40B51E2C400D882C43751E2A40AA
:102680000D892A434D882A436A4DA8420BD06F4DCD
:10269000A84208D0744DA84205D0744DA84202D07B
:1026A000734DA84213D14FF6F7752A404D892A433E
:1026B0004FF6FB752A408D882A434FF6FF652B4065
:1026C0004FF6FF552B408D892B43CD892B438380BB
:1026D0000483CD888586028470BD70B500240022F5
:1026E0000023058C4FF6EF7635400584028C8388F5
:1026F000048B48F6FF752C404FF6FF452C400D88A3
:102700004FF6FF7606EA05252C434FF6DF752A4083
:102710000D8906EA05152A434D8806EA05152A4360
:10272000444DA84202D0494DA8421DD14FF67F75B5
:102730002A404D894FF6FF7606EA05152A434FF6E3
:10274000BF752A408D8806EA05152A434FF6FF35E6
:102750002B404FF2FF752B408D8906EA85052B43F0
:10276000CD8906EA85052B4383800483CD880587C0
:10277000028470BD70B5002400220023058C4FF642
:10278000FF6635400584028C8388848B4FF68F75F5
:102790002C404FF6FC752C400D882C434FF6FF550E
:1027A0002A400D894FF6FF7606EA05252A434D8813
:1027B00006EA05252A431F4DA84202D0234DA84210
:1027C0001DD14FF2FF752A404D894FF6FF7606EA7C
:1027D00005252A434FF6FF352A408D8806EA052550
:1027E0002A434EF6FF752B404DF6FF752B408D8921
:1027F00006EA05152B43CD8906EA05152B43838090
:102800008483CD888587028470BD70B50022002343
:102810000024058C4EF6FF7635400584038C8488B1
:10282000828B48F6FF752A404FF6FF452A400D88F7
:1028300020E00000002C014000040040000800409F
:10284000000C004000100040001400400034014023
:10285000004C01400050014000540140001800406D
:10286000001C0040002000400040014000440140A6
:10287000004801404FF6FF7606EA05252A434DF64B
:10288000FF752B400D8906EA05352B434D8806EA76
:1028900005352B43FA4DA84202D0FA4DA84208D183
:1028A0004BF6FF752C408D894FF6FF7606EA8515AD
:1028B0002C4384808283CD88A0F84050038470BD6F
:1028C000828B4FF2FF331A408283828B4FF6FF7365
:1028D00003EA01231A4382837047F0B50C4615467C
:1028E000002200210026078C4EF6FF7C07EA0C0729
:1028F0000784828B018C4FF6FF7707EA043640F697
:10290000FF473A404FF6FF7707EA05273A434FF66D
:10291000FF7707EA03373A43D94FB8420ED0D94F71
:10292000B8420BD0B0F1804F08D0D74FB84205D095
:10293000D64FB84202D0D64FB84206D14DF6FF77F7
:10294000394046F48057394305E047F6FF57394090
:1029500044F48057394382830184F0BD828B4FF663
:10296000F3731A408283828B0A4382837047F0B5E7
:102970000C461546002200210026078C4FF6FF6CFE
:1029800007EA0C070784828B018C4FF6FF7707EA72
:1029900004264FF60C773A404FF6FF7707EA031705
:1029A0002F433A43B64FB8420ED0B64FB8420BD081
:1029B000B0F1804F08D0B44FB84205D0B34FB84201
:1029C00002D0B34FB84206D14FF6FF57394046F414
:1029D0008077394305E04FF2FF57394044F4807760
:1029E000394382830184F0BD028B4FF2FF331A40DA
:1029F0000283028B4FF6FF7303EA01231A4302831B
:102A00007047F0B50C461546002200210026078CC1
:102A10004FF6EF7C07EA0C070784028B018C4FF618
:102A2000FF7707EA041640F6FF473A404FF6FF7774
:102A300007EA03373A434FF6FF7707EA05273A4399
:102A40008F4FB8420ED08F4FB8420BD0B0F1804FAD
:102A500008D08D4FB84205D08C4FB84202D08C4F71
:102A6000B84206D14FF6DF77394046F010073943B8
:102A700005E04FF65F77394044F010073943028391
:102A80000184F0BD028B4FF6F3731A400283028B70
:102A90000A4302837047F0B50C4615460022002118
:102AA000068C4FF6FE773E400684028B018C4FF673
:102AB0000C7632407E1C06EA03162E433243704EDB
:102AC000B0420ED06F4EB0420BD0B0F1804F08D064
:102AD0006D4EB04205D06D4EB04202D06C4EB04249
:102AE00006D14FF6FD76314044F00106314305E052
:102AF0004FF6F576314044F00106314302830184FC
:102B0000F0BD70B505460C465D4885420ED05D4867
:102B100085420BD0B5F1804F08D05B48854205D087
:102B20005A48854202D05A48854200D100E000BF91
:102B3000208850B92389A28861882846FFF7ABFF17
:102B4000E1882846FFF79EFF25E0208804280AD167
:102B50002389A28861882846FFF753FFE188284629
:102B6000FFF742FF17E0208808280AD12389A288AE
:102B700061882846FFF7FBFEE1882846FFF7EEFE56
:102B800009E02389A28861882846FFF7A6FEE1882C
:102B90002846FFF795FE70BD2DE9F04105460C462D
:102BA00000260127608808B9022600E00026A088D8
:102BB000012801D1022700E001272088A0B923893C
:102BC000A28861882846FFF766FFE1882846FFF75C
:102BD00059FF23893A4631462846FFF712FFE1881C
:102BE0002846FFF701FF13E02389A2886188284661
:102BF000FFF707FFE1882846FFF7F6FE23893A46EC
:102C000031462846FFF747FFE1882846FFF73AFF9D
:102C1000BDE8F0810A884B881A438B881A43CB8819
:102C20001A430B891A434B891A438B891A43A0F81C
:102C3000442070474FF6FF71818000210180C180E0
:102C40004180017270470021018041808180C180F4
:102C5000018141818181C1817047002101804180D2
:102C6000012181800021C180018170470021018004
:102C700041808180C1800181418181817047000054
:102C8000002C0140003401400004004000080040D6
:102C9000000C004021B1028842F00102028004E0F1
:102CA00002884FF6FE731A400280704731B1B0F8C7
:102CB000442042F40042A0F8442005E0B0F844204B
:102CC000C2F30E02A0F8442070471AB183890B4367
:102CD000838102E083898B438381704781827047BF
:102CE00041EA0203A0F8483070471AB183890B43C8
:102CF000838102E083898B438381704701894FF68A
:102D0000F8721140018170470A46002101894FF68F
:102D10008F73194011430181704730B504460D4649
:102D200029462046FFF7F0FF208940F00700208168
:102D300030BD2DE9F04104460D4616461F46602D74
:102D400006D13B46012231462046FFF75AFE05E0F8
:102D50003B46012231462046FFF79DFE294620468C
:102D6000FFF7D2FF208940F007002081BDE8F08105
:102D700030B50C4600210189C9B24FF6FF7505EA4E
:102D80000325154325432943018130BD2DE9F04139
:102D900005460E4617469846002443463A463146B5
:102DA0002846FFF7E5FF2C894FF6F870044044F001
:102DB00007044FF68F70044044F070042C81BDE886
:102DC000F081F0B504460D4616461F463B46324696
:102DD00029462046FFF7CCFF208940F4804020811F
:102DE000F0BD0185828270470A46002101884FF6B6
:102DF0008F731940114301807047F0B50C4615469A
:102E00001E460021002200230189028B038C4FF60D
:102E1000F877394021434FF6FC473A4040F201171A
:102E20003A434FF6DD773B404FF6FF7707EA061748
:102E30002F433B43018102830384F0BD0A460021F6
:102E4000018B4FF68F7319401143018370470A4677
:102E50000021018B48F6FF7319404FF6FF7303EA18
:102E600002231943018370470A460021818B4FF6E4
:102E70008F7319401143818370470A460021818B6B
:102E800048F6FF7319404FF6FF7303EA0223194314
:102E90008183704721B1028842F08002028004E001
:102EA00002884FF67F731A400280704721B18288F2
:102EB00042F00402828004E082884FF6FB731A40DD
:102EC0008280704721B1828842F00802828004E04B
:102ED00082884FF6F7731A408280704721B182884A
:102EE00042F00102828004E082884FF6FE731A40AD
:102EF000828070470A460021018B4FF6F773194014
:102F00001143018370470A460021018B4FF2FF7382
:102F100019404FF6FF7303EA0223194301837047F8
:102F20000A460021818B4FF6F773194011438183C4
:102F300070470A460021818B4FF2FF7319404FF60C
:102F4000FF7303EA02231943818370470A46002175
:102F5000018B4FF6FB7319401143018370470A46FA
:102F60000021018B4FF6FF3319404FF6FF7303EA40
:102F700002231943018370470A460021818B4FF6D3
:102F8000FB7319401143818370470A460021818BEE
:102F90004FF6FF3319404FF6FF7303EA022319433C
:102FA000818370470A460021018B4FF67F731940D9
:102FB0001143018370470A460021018BC1F30E01C2
:102FC0004FF6FF7303EA02231943018370470A4651
:102FD0000021818B4FF67F73194011438183704725
:102FE0000A460021818BC1F30E014FF6FF7303EAFD
:102FF00002231943818370470A460021018C4FF652
:10300000FD7319401143018470470A460021018C69
:103010004FF6F77319401143018470470A460021A7
:10302000018C4FF6DF7319404FF6FF7303EA02136A
:103030001943018470470A460021018C4FF67F73C3
:1030400019404FF6FF7303EA0213194301847047D6
:103050000A460021018C4FF6FF5319404FF6FF73CB
:1030600003EA02231943018470470A460021018CB8
:103070004FF2FF7319404FF6FF7303EA022319431F
:10308000018470470A460021018C4DF6FF731940F8
:103090004FF6FF7303EA023319430184704730B5DA
:1030A000002301248C40A3B2048C9C430484048C30
:1030B00002FA01F5ADB22C43048430BD30B50023D3
:1030C00004248C40A3B2048C9C430484048C02FA34
:1030D00001F5ADB22C43048430BD70B50346002029
:1030E00000241846183001258D40ACB21D8CA54334
:1030F0001D8409B1082909D100EB6100056825F09C
:10310000700505600568154305600EE00D1FC5F3E9
:103110004E052844056825F4E045056005684FF62E
:10312000FF7606EA02263543056070BD21B10288AC
:1031300042F00202028004E002884FF6FD731A405A
:103140000280704721B1028842F00402028004E04C
:1031500002884FF6FB731A400280704721B18288C3
:1031600042F08002828004E082884FF67F731A402A
:103170008280704702884FF6F7731A4002800288F7
:103180000A430280704782884FF68F731A4082800C
:1031900082880A438280704702894FF6F8731A408A
:1031A000028102890A430281704702894FF67F73C8
:1031B0001A40028102890A43028170478184704764
:1031C0008185704781867047018770478187704786
:1031D000A0F84010704702884FF6FF431A40028063
:1031E00002880A43028070470146888E7047014674
:1031F000088F70470146888F70470146B1F840003C
:1032000070470146888C70470146088D704702461A
:103210000020138A0B400BB1012000E00020704712
:10322000CA430282704730B50246002000230024C2
:10323000158A05EA0103958905EA010413B10CB169
:10324000012000E0002030BDCA4302827047704771
:103250000FB4044910B503AA029800F005F910BC98
:103260005DF814FB500000202DE9F0410E460446A5
:10327000002020622046E168884730B3252805D029
:10328000D4E901219047206A401CF2E7E16820461A
:1032900000278847050018D0A5F14100192802D859
:1032A00020354FF400673246294620462760FCF758
:1032B00079FF40B1012804D0F61D26F00706083634
:1032C000D8E7361DD6E72846DAE7206ABDE8F08160
:1032D0002DE9F0410646002410687529314616A5EF
:1032E00010D0AFF30080002802DA404213A507E0B7
:1032F00031688A0701D512A502E0490704D511A556
:10330000012401E0AFF3008000210A2206F1240726
:1033100009E0B0FBF2FCB0FBF2F302FB1C00303022
:1033200078541846491C0028F3D123462A463046D3
:10333000BDE8F04100F03EB8000000002D000000A4
:103340002B0000002000000010B5203AC0F00B80D8
:10335000B1E81850203AA0E81850B1E81850A0E899
:103360001850BFF4F5AF5FEA027C24BFB1E81850F3
:10337000A0E8185044BF18C918C0BDE810405FEA63
:10338000827C24BF51F8043B40F8043B08BF7047DF
:10339000D20728BF31F8023B48BF11F8012B28BFE4
:1033A00020F8023B48BF00F8012B70477047704778
:1033B000704770472DE9F0470D46994692460446FE
:1033C00000F124080168880604D5E06921F01001A5
:1033D000216000E00120A84201DD471B00E000273A
:1033E000A1697A1902EB0900081AA0612078C006C9
:1033F00002D42046AFF30080002608E0D4E9012182
:103400001AF806009047206A401C761C20624E4540
:10341000F4DB2078C0060AD52046AFF3008006E032
:10342000D4E9012130209047206A401C2062381ED8
:10343000A7F10107F4DC07E0D4E9012118F8050041
:103440009047206A401C2062281EA5F10105F3DC8C
:103450002046AFF300802078000602D50220BDE8A8
:10346000F0870120FBE70000074B70B50D467B4459
:1034700000F011F80446284600F020F810B14FF093
:10348000FF3070BD204670BD31E1FFFF01694A1C6D
:1034900002610878704700B58FB0CDE90131002195
:1034A000059105497944CDE9031011466846FFF7B7
:1034B000DBFE0FB000BD0000E5FFFFFF007B00F06A
:1034C00080007047754600F029F8AE460500694651
:1034D000534620F00700854618B020B5FEF7A6F940
:1034E000BDE820404FF000064FF000074FF0000805
:1034F0004FF0000B21F00701AC46ACE8C009ACE886
:10350000C009ACE8C009ACE8C0098D467047044664
:10351000AFF300802046FCF757FE000000487047DC
:10352000840000204FEA1153A3F58063D3F11E03FA
:10353000A8BFD3F1200C08DB4FF0004242EAC122C1
:1035400052EA505232FA03F0704709420BD4102B62
:10355000C4BF0020704703F5787CBCF1FF3F05D065
:103560004FF0FF3070474FF00000704770B500F02B
:10357000B1F800BF4992248000207047F0E70000B6
:10358000DFF848C170B51CEA111E1EBF1CEA1315F6
:103590009EEA0C0F95EA0C0F00F06F8081EA03049D
:1035A00023EA4C134EEAD47E21EA4C1141F48011F7
:1035B00043F48013AE44A1FB024CA0FB0365AEF1C3
:1035C0007F7E361955EB0C05A1FB034C4CF1000333
:1035D000A0FB021C16EB0C06654153F100030942E7
:1035E00018BF46F0010613F4007F0BD14FEA0331F8
:1035F0004FEA0530340341EA155140EA16506FF0A6
:1036000003020AE04FEAC3214FEAC520F40241EA6F
:10361000555140EA56506FF0020202EB2E4201EB88
:10362000025585EACE710AD05FEA440C18BF24F037
:10363000004450F1000041F1000120EAD47040F252
:10364000FE7C624500D270BDA84214BF4FF080449A
:103650004FF04044002E08BF0024BEF1806FA8BF89
:10366000A1F1C041BDE8704080F282804FF00000BF
:1036700001F1C04101F0004170479EEA0C0F0CEAD5
:10368000131518BF95EA0C0F06D04FF0000081EA21
:10369000030E0EF0004170BD00F01CF88900013EE1
:1036A00000F007B800F009B84FEA430C5FEA5C5C31
:1036B00008D081EA030100F05BB84FEA410C5FEAF1
:1036C0005C5CF6D14FF00000014970470000FF0735
:1036D0000000F87F0EF1020E2EF0030E5EF8046B70
:1036E000364205D4012A43EB030515F5001F12D815
:1036F000012841EB010C1CF5001F0CD80ED14FEA3C
:10370000D17C15F5001F0CEB4C0C0CF1020C08BF22
:103710004CEBD37C04E04FF0080C01E04FEAD37C83
:103720000CEB4C0526FA05F606F00706B6F1040C7C
:1037300006D20EEB860CBDE870404CF0010C6047E1
:10374000DFE80CF0090B02024FF000414FF00000DF
:10375000A1F5002170BD19461046012851EB010466
:1037600018BFD4F5001484BF002001F0004170BDE3
:103770000808A0F500114FEA3101704743004FEAF5
:10378000D30C4FEA3C0C43401FBF40070CF1605183
:1037900013F0FE4F70471CF0006F03D100200CF0B7
:1037A000004170470CF0004343EA507010B540EA06
:1037B000CC0000F022F800BF000000924FEA0001A8
:1037C000FFF7D6BF4FF000414FF00000A1F50021F8
:1037D00070470000B0FA80F310FA03F2C3F19D03C2
:1037E0000AD0D90501EB1220530638BF704700F10B
:1037F000010008BF20F0010070470EF1020E2EF00C
:10380000030E5EF8044B244204D44FEA4102B2F1A5
:103810007F4F11D84FEA4003B3F17F4F0CD80ED140
:103820004FEAD07CB2F17F4F0CEB4C0C0CF1020C48
:1038300008BF4CEBD17C04E04FF0080C01E04FEAEC
:10384000D17C0CEB4C0324FA03F404F00704B4F12C
:10385000040C06D20EEB840CBDE810404CF0010CB9
:103860006047DFE80CF0070802024FF00040A0F5C7
:10387000800010BD0846420018BFD2F1807288BF98
:1038800000F0004010BD00003030000000000000DB
:10389000000000000000000000000000BC38000034
:1038A00000000020840000006C010000403900008E
:1038B0008400002064060000880100000000000071
:1038C000303030303030000000A24A0400000000E8
:1038D00000000000010203040607080900000000C0
:1038E00000000000000000000000000000000000D8
:1038F00000000000000000000000000000000000C8
:1039000000000000000000000000000000000000B7
:1039100000000000000000000000000000000000A7
:103920000000000000000000000000000000010294
:103930000304010203040607080902040608000044
:0400000500000131C5
:00000001FF
